{
  "contractName": "Lottery",
  "abi": [
    {
      "inputs": [],
      "stateMutability": "nonpayable",
      "type": "constructor"
    },
    {
      "inputs": [],
      "name": "Manager",
      "outputs": [
        {
          "internalType": "address",
          "name": "",
          "type": "address"
        }
      ],
      "stateMutability": "view",
      "type": "function",
      "constant": true
    },
    {
      "inputs": [
        {
          "internalType": "uint256",
          "name": "",
          "type": "uint256"
        }
      ],
      "name": "Players",
      "outputs": [
        {
          "internalType": "address payable",
          "name": "",
          "type": "address"
        }
      ],
      "stateMutability": "view",
      "type": "function",
      "constant": true
    },
    {
      "inputs": [],
      "name": "Winner",
      "outputs": [
        {
          "internalType": "address payable",
          "name": "",
          "type": "address"
        }
      ],
      "stateMutability": "view",
      "type": "function",
      "constant": true
    },
    {
      "inputs": [],
      "name": "participate",
      "outputs": [],
      "stateMutability": "payable",
      "type": "function",
      "payable": true
    },
    {
      "inputs": [],
      "name": "getBalance",
      "outputs": [
        {
          "internalType": "uint256",
          "name": "",
          "type": "uint256"
        }
      ],
      "stateMutability": "view",
      "type": "function",
      "constant": true
    },
    {
      "inputs": [],
      "name": "pickWinner",
      "outputs": [],
      "stateMutability": "nonpayable",
      "type": "function"
    }
  ],
  "bytecode": "0x608060405234801561001057600080fd5b50336000806101000a81548173ffffffffffffffffffffffffffffffffffffffff021916908373ffffffffffffffffffffffffffffffffffffffff160217905550610ae2806100606000396000f3fe6080604052600436106100555760003560e01c806312065fe01461005a57806348ef3f03146100855780635d495aea146100c257806378357e53146100d9578063b2b98ed214610104578063d11711a21461012f575b600080fd5b34801561006657600080fd5b5061006f610139565b60405161007c9190610838565b60405180910390f35b34801561009157600080fd5b506100ac60048036038101906100a79190610648565b6101cf565b6040516100b9919061079d565b60405180910390f35b3480156100ce57600080fd5b506100d761020e565b005b3480156100e557600080fd5b506100ee610459565b6040516100fb9190610782565b60405180910390f35b34801561011057600080fd5b5061011961047d565b604051610126919061079d565b60405180910390f35b6101376104a3565b005b60003373ffffffffffffffffffffffffffffffffffffffff1660008054906101000a900473ffffffffffffffffffffffffffffffffffffffff1673ffffffffffffffffffffffffffffffffffffffff16146101c9576040517f08c379a00000000000000000000000000000000000000000000000000000000081526004016101c0906107d8565b60405180910390fd5b47905090565b600281815481106101df57600080fd5b906000526020600020016000915054906101000a900473ffffffffffffffffffffffffffffffffffffffff1681565b3373ffffffffffffffffffffffffffffffffffffffff1660008054906101000a900473ffffffffffffffffffffffffffffffffffffffff1673ffffffffffffffffffffffffffffffffffffffff161461029c576040517f08c379a0000000000000000000000000000000000000000000000000000000008152600401610293906107f8565b60405180910390fd5b600360028054905010156102e5576040517f08c379a00000000000000000000000000000000000000000000000000000000081526004016102dc90610818565b60405180910390fd5b60006102ef610552565b905060006002805490508261030491906108bc565b90506002818154811061031a5761031961091c565b5b9060005260206000200160009054906101000a900473ffffffffffffffffffffffffffffffffffffffff16600160006101000a81548173ffffffffffffffffffffffffffffffffffffffff021916908373ffffffffffffffffffffffffffffffffffffffff160217905550600160009054906101000a900473ffffffffffffffffffffffffffffffffffffffff1673ffffffffffffffffffffffffffffffffffffffff166108fc6103c9610139565b9081150290604051600060405180830381858888f193505050501580156103f4573d6000803e3d6000fd5b50600067ffffffffffffffff8111156104105761040f61094b565b5b60405190808252806020026020018201604052801561043e5781602001602082028036833780820191505090505b506002908051906020019061045492919061058c565b505050565b60008054906101000a900473ffffffffffffffffffffffffffffffffffffffff1681565b600160009054906101000a900473ffffffffffffffffffffffffffffffffffffffff1681565b670de0b6b3a764000034146104ed576040517f08c379a00000000000000000000000000000000000000000000000000000000081526004016104e4906107b8565b60405180910390fd5b6002339080600181540180825580915050600190039060005260206000200160009091909190916101000a81548173ffffffffffffffffffffffffffffffffffffffff021916908373ffffffffffffffffffffffffffffffffffffffff160217905550565b6000424460028054905060405160200161056e93929190610745565b6040516020818303038152906040528051906020012060001c905090565b828054828255906000526020600020908101928215610605579160200282015b828111156106045782518260006101000a81548173ffffffffffffffffffffffffffffffffffffffff021916908373ffffffffffffffffffffffffffffffffffffffff160217905550916020019190600101906105ac565b5b5090506106129190610616565b5090565b5b8082111561062f576000816000905550600101610617565b5090565b60008135905061064281610a95565b92915050565b60006020828403121561065e5761065d61097a565b5b600061066c84828501610633565b91505092915050565b61067e81610876565b82525050565b61068d81610864565b82525050565b60006106a0602e83610853565b91506106ab8261097f565b604082019050919050565b60006106c3603283610853565b91506106ce826109ce565b604082019050919050565b60006106e6600d83610853565b91506106f182610a1d565b602082019050919050565b6000610709602683610853565b915061071482610a46565b604082019050919050565b610728816108a8565b82525050565b61073f61073a826108a8565b6108b2565b82525050565b6000610751828661072e565b602082019150610761828561072e565b602082019150610771828461072e565b602082019150819050949350505050565b60006020820190506107976000830184610684565b92915050565b60006020820190506107b26000830184610675565b92915050565b600060208201905081810360008301526107d181610693565b9050919050565b600060208201905081810360008301526107f1816106b6565b9050919050565b60006020820190508181036000830152610811816106d9565b9050919050565b60006020820190508181036000830152610831816106fc565b9050919050565b600060208201905061084d600083018461071f565b92915050565b600082825260208201905092915050565b600061086f82610888565b9050919050565b600061088182610888565b9050919050565b600073ffffffffffffffffffffffffffffffffffffffff82169050919050565b6000819050919050565b6000819050919050565b60006108c7826108a8565b91506108d2836108a8565b9250826108e2576108e16108ed565b5b828206905092915050565b7f4e487b7100000000000000000000000000000000000000000000000000000000600052601260045260246000fd5b7f4e487b7100000000000000000000000000000000000000000000000000000000600052603260045260246000fd5b7f4e487b7100000000000000000000000000000000000000000000000000000000600052604160045260246000fd5b600080fd5b7f504c45415345205041592054484520524551554952454420312045544845522060008201527f544f205041525449434950415445000000000000000000000000000000000000602082015250565b7f596f7520617265206e6f7420746865206d616e616765722c20736f20796f752060008201527f63616e7420636865636b2062616c616e63650000000000000000000000000000602082015250565b7f6163636573732064656e69656400000000000000000000000000000000000000600082015250565b7f6e6f7420656e6f75676820706c617965727320746f20706c61792c706c7a207760008201527f6169742e2e2e0000000000000000000000000000000000000000000000000000602082015250565b610a9e816108a8565b8114610aa957600080fd5b5056fea26469706673582212200b95bb3181e21ed9b2929f8d2e85c0dcc3fb59c6567a1a052b83c0e5b945de9b64736f6c63430008060033",
  "immutableReferences": {},
  "source": "// SPDX-License-Identifier: MIT\r\npragma solidity >=0.7.0 <0.9.0;\r\n\r\ncontract Lottery{\r\n\r\n    address public Manager;\r\n    address payable public Winner;\r\n    address payable[] public Players;\r\n\r\n    constructor(){\r\n        Manager=msg.sender;\r\n    }\r\n\r\n    function participate() public payable  {\r\n        require(msg.value==1 ether, \"PLEASE PAY THE REQUIRED 1 ETHER TO PARTICIPATE\");\r\n        Players.push(payable (msg.sender));\r\n    }\r\n\r\n    function getBalance() public view returns (uint){\r\n        require(Manager==msg.sender, \"You are not the manager, so you cant check balance\");\r\n        return address(this).balance;\r\n    }\r\n\r\n    // function random() internal view returns (uint){\r\n    //     return uint(keccak256(abi.encodePacked(block.prevrandao,block.timestamp,Players.length)));\r\n    // }\r\n    function random() internal view returns (uint) {\r\n    return uint(keccak256(abi.encodePacked(block.timestamp, block.difficulty, Players.length)));\r\n}\r\n\r\n    function pickWinner() public {\r\n        require(Manager==msg.sender,\"access denied\");\r\n        require(Players.length>=3,\"not enough players to play,plz wait...\");\r\n\r\n        uint ran=random();\r\n        uint indx=ran % Players.length ;\r\n        Winner=Players[indx];\r\n        Winner.transfer(getBalance());\r\n        Players=new address payable[](0);\r\n    }\r\n}",
  "sourcePath": "C:\\Users\\hassa\\OneDrive\\Desktop\\lottery\\contracts\\Lottery.sol",
  "compiler": {
    "name": "solc",
    "version": "0.8.6+commit.11564f7e.Emscripten.clang"
  },
  "schemaVersion": "3.4.16",
  "updatedAt": "2025-01-10T17:23:48.934Z",
  "networkType": "ethereum",
  "devdoc": {
    "kind": "dev",
    "methods": {},
    "version": 1
  },
  "userdoc": {
    "kind": "user",
    "methods": {},
    "version": 1
  }
}