{
  "contractName": "Lottery",
  "abi": [
    {
      "inputs": [],
      "stateMutability": "nonpayable",
      "type": "constructor"
    },
    {
      "inputs": [],
      "name": "Manager",
      "outputs": [
        {
          "internalType": "address",
          "name": "",
          "type": "address"
        }
      ],
      "stateMutability": "view",
      "type": "function",
      "constant": true
    },
    {
      "inputs": [
        {
          "internalType": "uint256",
          "name": "",
          "type": "uint256"
        }
      ],
      "name": "Players",
      "outputs": [
        {
          "internalType": "address payable",
          "name": "",
          "type": "address"
        }
      ],
      "stateMutability": "view",
      "type": "function",
      "constant": true
    },
    {
      "inputs": [],
      "name": "Winner",
      "outputs": [
        {
          "internalType": "address payable",
          "name": "",
          "type": "address"
        }
      ],
      "stateMutability": "view",
      "type": "function",
      "constant": true
    },
    {
      "inputs": [],
      "name": "participate",
      "outputs": [],
      "stateMutability": "payable",
      "type": "function",
      "payable": true
    },
    {
      "inputs": [],
      "name": "getBalance",
      "outputs": [
        {
          "internalType": "uint256",
          "name": "",
          "type": "uint256"
        }
      ],
      "stateMutability": "view",
      "type": "function",
      "constant": true
    },
    {
      "inputs": [],
      "name": "getPlayers",
      "outputs": [
        {
          "internalType": "address payable[]",
          "name": "",
          "type": "address[]"
        }
      ],
      "stateMutability": "view",
      "type": "function",
      "constant": true
    },
    {
      "inputs": [],
      "name": "pickWinner",
      "outputs": [],
      "stateMutability": "nonpayable",
      "type": "function"
    }
  ],
  "bytecode": "0x608060405234801561001057600080fd5b50336000806101000a81548173ffffffffffffffffffffffffffffffffffffffff021916908373ffffffffffffffffffffffffffffffffffffffff160217905550610c96806100606000396000f3fe6080604052600436106100705760003560e01c806378357e531161004e57806378357e53146100f45780638b5b9ccc1461011f578063b2b98ed21461014a578063d11711a21461017557610070565b806312065fe01461007557806348ef3f03146100a05780635d495aea146100dd575b600080fd5b34801561008157600080fd5b5061008a61017f565b60405161009791906109b3565b60405180910390f35b3480156100ac57600080fd5b506100c760048036038101906100c2919061071c565b610215565b6040516100d491906108f6565b60405180910390f35b3480156100e957600080fd5b506100f2610254565b005b34801561010057600080fd5b5061010961049f565b60405161011691906108db565b60405180910390f35b34801561012b57600080fd5b506101346104c3565b6040516101419190610911565b60405180910390f35b34801561015657600080fd5b5061015f610551565b60405161016c91906108f6565b60405180910390f35b61017d610577565b005b60003373ffffffffffffffffffffffffffffffffffffffff1660008054906101000a900473ffffffffffffffffffffffffffffffffffffffff1673ffffffffffffffffffffffffffffffffffffffff161461020f576040517f08c379a000000000000000000000000000000000000000000000000000000000815260040161020690610953565b60405180910390fd5b47905090565b6002818154811061022557600080fd5b906000526020600020016000915054906101000a900473ffffffffffffffffffffffffffffffffffffffff1681565b3373ffffffffffffffffffffffffffffffffffffffff1660008054906101000a900473ffffffffffffffffffffffffffffffffffffffff1673ffffffffffffffffffffffffffffffffffffffff16146102e2576040517f08c379a00000000000000000000000000000000000000000000000000000000081526004016102d990610973565b60405180910390fd5b6003600280549050101561032b576040517f08c379a000000000000000000000000000000000000000000000000000000000815260040161032290610993565b60405180910390fd5b6000610335610626565b905060006002805490508261034a9190610a70565b9050600281815481106103605761035f610ad0565b5b9060005260206000200160009054906101000a900473ffffffffffffffffffffffffffffffffffffffff16600160006101000a81548173ffffffffffffffffffffffffffffffffffffffff021916908373ffffffffffffffffffffffffffffffffffffffff160217905550600160009054906101000a900473ffffffffffffffffffffffffffffffffffffffff1673ffffffffffffffffffffffffffffffffffffffff166108fc61040f61017f565b9081150290604051600060405180830381858888f1935050505015801561043a573d6000803e3d6000fd5b50600067ffffffffffffffff81111561045657610455610aff565b5b6040519080825280602002602001820160405280156104845781602001602082028036833780820191505090505b506002908051906020019061049a929190610660565b505050565b60008054906101000a900473ffffffffffffffffffffffffffffffffffffffff1681565b6060600280548060200260200160405190810160405280929190818152602001828054801561054757602002820191906000526020600020905b8160009054906101000a900473ffffffffffffffffffffffffffffffffffffffff1673ffffffffffffffffffffffffffffffffffffffff16815260200190600101908083116104fd575b5050505050905090565b600160009054906101000a900473ffffffffffffffffffffffffffffffffffffffff1681565b670de0b6b3a764000034146105c1576040517f08c379a00000000000000000000000000000000000000000000000000000000081526004016105b890610933565b60405180910390fd5b6002339080600181540180825580915050600190039060005260206000200160009091909190916101000a81548173ffffffffffffffffffffffffffffffffffffffff021916908373ffffffffffffffffffffffffffffffffffffffff160217905550565b600042446002805490506040516020016106429392919061089e565b6040516020818303038152906040528051906020012060001c905090565b8280548282559060005260206000209081019282156106d9579160200282015b828111156106d85782518260006101000a81548173ffffffffffffffffffffffffffffffffffffffff021916908373ffffffffffffffffffffffffffffffffffffffff16021790555091602001919060010190610680565b5b5090506106e691906106ea565b5090565b5b808211156107035760008160009055506001016106eb565b5090565b60008135905061071681610c49565b92915050565b60006020828403121561073257610731610b2e565b5b600061074084828501610707565b91505092915050565b60006107558383610761565b60208301905092915050565b61076a81610a2a565b82525050565b61077981610a2a565b82525050565b61078881610a18565b82525050565b6000610799826109de565b6107a381856109f6565b93506107ae836109ce565b8060005b838110156107df5781516107c68882610749565b97506107d1836109e9565b9250506001810190506107b2565b5085935050505092915050565b60006107f9602e83610a07565b915061080482610b33565b604082019050919050565b600061081c603283610a07565b915061082782610b82565b604082019050919050565b600061083f600d83610a07565b915061084a82610bd1565b602082019050919050565b6000610862602683610a07565b915061086d82610bfa565b604082019050919050565b61088181610a5c565b82525050565b61089861089382610a5c565b610a66565b82525050565b60006108aa8286610887565b6020820191506108ba8285610887565b6020820191506108ca8284610887565b602082019150819050949350505050565b60006020820190506108f0600083018461077f565b92915050565b600060208201905061090b6000830184610770565b92915050565b6000602082019050818103600083015261092b818461078e565b905092915050565b6000602082019050818103600083015261094c816107ec565b9050919050565b6000602082019050818103600083015261096c8161080f565b9050919050565b6000602082019050818103600083015261098c81610832565b9050919050565b600060208201905081810360008301526109ac81610855565b9050919050565b60006020820190506109c86000830184610878565b92915050565b6000819050602082019050919050565b600081519050919050565b6000602082019050919050565b600082825260208201905092915050565b600082825260208201905092915050565b6000610a2382610a3c565b9050919050565b6000610a3582610a3c565b9050919050565b600073ffffffffffffffffffffffffffffffffffffffff82169050919050565b6000819050919050565b6000819050919050565b6000610a7b82610a5c565b9150610a8683610a5c565b925082610a9657610a95610aa1565b5b828206905092915050565b7f4e487b7100000000000000000000000000000000000000000000000000000000600052601260045260246000fd5b7f4e487b7100000000000000000000000000000000000000000000000000000000600052603260045260246000fd5b7f4e487b7100000000000000000000000000000000000000000000000000000000600052604160045260246000fd5b600080fd5b7f504c45415345205041592054484520524551554952454420312045544845522060008201527f544f205041525449434950415445000000000000000000000000000000000000602082015250565b7f596f7520617265206e6f7420746865206d616e616765722c20736f20796f752060008201527f63616e7420636865636b2062616c616e63650000000000000000000000000000602082015250565b7f6163636573732064656e69656400000000000000000000000000000000000000600082015250565b7f6e6f7420656e6f75676820706c617965727320746f20706c61792c706c7a207760008201527f6169742e2e2e0000000000000000000000000000000000000000000000000000602082015250565b610c5281610a5c565b8114610c5d57600080fd5b5056fea264697066735822122045e19763a1b3015621356add1d044e1aab9ff4645d0057090892c1a41f505afc64736f6c63430008060033",
  "immutableReferences": {},
  "source": "// SPDX-License-Identifier: MIT\r\npragma solidity >=0.7.0 <0.9.0;\r\n\r\ncontract Lottery{\r\n\r\n    address public Manager;\r\n    address payable public Winner;\r\n    address payable[] public Players;\r\n\r\n    constructor(){\r\n        Manager=msg.sender;\r\n    }\r\n\r\n    function participate() public payable  {\r\n        require(msg.value==1 ether, \"PLEASE PAY THE REQUIRED 1 ETHER TO PARTICIPATE\");\r\n        Players.push(payable (msg.sender));\r\n    }\r\n\r\n    function getBalance() public view returns (uint){\r\n        require(Manager==msg.sender, \"You are not the manager, so you cant check balance\");\r\n        return address(this).balance;\r\n    }\r\n\r\n    // function random() internal view returns (uint){\r\n    //     return uint(keccak256(abi.encodePacked(block.prevrandao,block.timestamp,Players.length)));\r\n    // }\r\n    function random() internal view returns (uint) {\r\n    return uint(keccak256(abi.encodePacked(block.timestamp, block.difficulty, Players.length)));\r\n}\r\n\r\n    function getPlayers() public view returns(address payable[] memory){\r\n        return Players;\r\n    }\r\n\r\n    function pickWinner() public {\r\n        require(Manager==msg.sender,\"access denied\");\r\n        require(Players.length>=3,\"not enough players to play,plz wait...\");\r\n\r\n        uint ran=random();\r\n        uint indx=ran % Players.length ;\r\n        Winner=Players[indx];\r\n        Winner.transfer(getBalance());\r\n        Players=new address payable[](0);\r\n    }\r\n}",
  "sourcePath": "C:\\Users\\hassa\\OneDrive\\Desktop\\lottery\\contracts\\Lottery.sol",
  "compiler": {
    "name": "solc",
    "version": "0.8.6+commit.11564f7e.Emscripten.clang"
  },
  "schemaVersion": "3.4.16",
  "updatedAt": "2025-01-12T09:43:04.506Z",
  "networkType": "ethereum",
  "devdoc": {
    "kind": "dev",
    "methods": {},
    "version": 1
  },
  "userdoc": {
    "kind": "user",
    "methods": {},
    "version": 1
  }
}