{
  "contractName": "Lottery",
  "abi": [
    {
      "inputs": [],
      "stateMutability": "nonpayable",
      "type": "constructor"
    },
    {
      "anonymous": false,
      "inputs": [
        {
          "indexed": true,
          "internalType": "address",
          "name": "manager",
          "type": "address"
        },
        {
          "indexed": false,
          "internalType": "uint256",
          "name": "amount",
          "type": "uint256"
        }
      ],
      "name": "FundsWithdrawn",
      "type": "event"
    },
    {
      "anonymous": false,
      "inputs": [
        {
          "indexed": true,
          "internalType": "address",
          "name": "player",
          "type": "address"
        }
      ],
      "name": "PlayerJoined",
      "type": "event"
    },
    {
      "anonymous": false,
      "inputs": [
        {
          "indexed": true,
          "internalType": "address",
          "name": "winner",
          "type": "address"
        },
        {
          "indexed": false,
          "internalType": "uint256",
          "name": "amount",
          "type": "uint256"
        }
      ],
      "name": "PrizeTransferred",
      "type": "event"
    },
    {
      "anonymous": false,
      "inputs": [
        {
          "indexed": true,
          "internalType": "address",
          "name": "winner",
          "type": "address"
        },
        {
          "indexed": false,
          "internalType": "uint256",
          "name": "amount",
          "type": "uint256"
        }
      ],
      "name": "WinnerSelected",
      "type": "event"
    },
    {
      "inputs": [],
      "name": "isWinnerPicked",
      "outputs": [
        {
          "internalType": "bool",
          "name": "",
          "type": "bool"
        }
      ],
      "stateMutability": "view",
      "type": "function",
      "constant": true
    },
    {
      "inputs": [],
      "name": "manager",
      "outputs": [
        {
          "internalType": "address",
          "name": "",
          "type": "address"
        }
      ],
      "stateMutability": "view",
      "type": "function",
      "constant": true
    },
    {
      "inputs": [
        {
          "internalType": "uint256",
          "name": "",
          "type": "uint256"
        }
      ],
      "name": "players",
      "outputs": [
        {
          "internalType": "address payable",
          "name": "",
          "type": "address"
        }
      ],
      "stateMutability": "view",
      "type": "function",
      "constant": true
    },
    {
      "inputs": [],
      "name": "winner",
      "outputs": [
        {
          "internalType": "address payable",
          "name": "",
          "type": "address"
        }
      ],
      "stateMutability": "view",
      "type": "function",
      "constant": true
    },
    {
      "inputs": [],
      "name": "participate",
      "outputs": [],
      "stateMutability": "payable",
      "type": "function",
      "payable": true
    },
    {
      "inputs": [],
      "name": "getBalance",
      "outputs": [
        {
          "internalType": "uint256",
          "name": "",
          "type": "uint256"
        }
      ],
      "stateMutability": "view",
      "type": "function",
      "constant": true
    },
    {
      "inputs": [],
      "name": "getPlayers",
      "outputs": [
        {
          "internalType": "address payable[]",
          "name": "",
          "type": "address[]"
        }
      ],
      "stateMutability": "view",
      "type": "function",
      "constant": true
    },
    {
      "inputs": [],
      "name": "pickWinner",
      "outputs": [],
      "stateMutability": "nonpayable",
      "type": "function"
    },
    {
      "inputs": [],
      "name": "transferPrize",
      "outputs": [],
      "stateMutability": "nonpayable",
      "type": "function"
    },
    {
      "inputs": [],
      "name": "getWinner",
      "outputs": [
        {
          "internalType": "address payable",
          "name": "",
          "type": "address"
        }
      ],
      "stateMutability": "view",
      "type": "function",
      "constant": true
    },
    {
      "inputs": [],
      "name": "withdrawFunds",
      "outputs": [],
      "stateMutability": "nonpayable",
      "type": "function"
    }
  ],
  "bytecode": "0x608060405234801561001057600080fd5b50336000806101000a81548173ffffffffffffffffffffffffffffffffffffffff021916908373ffffffffffffffffffffffffffffffffffffffff1602179055506000600360006101000a81548160ff0219169083151502179055506112c18061007b6000396000f3fe60806040526004361061009c5760003560e01c80638b5b9ccc116100645780638b5b9ccc146101505780638e7ea5b21461017b578063d11711a2146101a6578063dfbf53ae146101b0578063ea8c50c6146101db578063f71d96cb146101f25761009c565b806312065fe0146100a157806324600fc3146100cc578063481c6a75146100e35780635d495aea1461010e5780638773340a14610125575b600080fd5b3480156100ad57600080fd5b506100b661022f565b6040516100c39190610f80565b60405180910390f35b3480156100d857600080fd5b506100e16102c6565b005b3480156100ef57600080fd5b506100f8610474565b6040516101059190610e4d565b60405180910390f35b34801561011a57600080fd5b50610123610498565b005b34801561013157600080fd5b5061013a6106e8565b6040516101479190610ea5565b60405180910390f35b34801561015c57600080fd5b506101656106fb565b6040516101729190610e83565b60405180910390f35b34801561018757600080fd5b50610190610789565b60405161019d9190610e68565b60405180910390f35b6101ae6107b3565b005b3480156101bc57600080fd5b506101c56108a5565b6040516101d29190610e68565b60405180910390f35b3480156101e757600080fd5b506101f06108cb565b005b3480156101fe57600080fd5b5061021960048036038101906102149190610c39565b610b04565b6040516102269190610e68565b60405180910390f35b60008060009054906101000a900473ffffffffffffffffffffffffffffffffffffffff1673ffffffffffffffffffffffffffffffffffffffff163373ffffffffffffffffffffffffffffffffffffffff16146102c0576040517f08c379a00000000000000000000000000000000000000000000000000000000081526004016102b790610ee0565b60405180910390fd5b47905090565b60008054906101000a900473ffffffffffffffffffffffffffffffffffffffff1673ffffffffffffffffffffffffffffffffffffffff163373ffffffffffffffffffffffffffffffffffffffff1614610354576040517f08c379a000000000000000000000000000000000000000000000000000000000815260040161034b90610ee0565b60405180910390fd5b60004711610397576040517f08c379a000000000000000000000000000000000000000000000000000000000815260040161038e90610f20565b60405180910390fd5b600047905060008054906101000a900473ffffffffffffffffffffffffffffffffffffffff1673ffffffffffffffffffffffffffffffffffffffff166108fc829081150290604051600060405180830381858888f19350505050158015610402573d6000803e3d6000fd5b5060008054906101000a900473ffffffffffffffffffffffffffffffffffffffff1673ffffffffffffffffffffffffffffffffffffffff167feaff4b37086828766ad3268786972c0cd24259d4c87a80f9d3963a3c3d999b0d826040516104699190610f80565b60405180910390a250565b60008054906101000a900473ffffffffffffffffffffffffffffffffffffffff1681565b60008054906101000a900473ffffffffffffffffffffffffffffffffffffffff1673ffffffffffffffffffffffffffffffffffffffff163373ffffffffffffffffffffffffffffffffffffffff1614610526576040517f08c379a000000000000000000000000000000000000000000000000000000000815260040161051d90610ee0565b60405180910390fd5b6003600280549050101561056f576040517f08c379a000000000000000000000000000000000000000000000000000000000815260040161056690610f40565b60405180910390fd5b600360009054906101000a900460ff16156105bf576040517f08c379a00000000000000000000000000000000000000000000000000000000081526004016105b690610f60565b60405180910390fd5b60006002805490506105cf610b43565b6105d99190611049565b9050600281815481106105ef576105ee6110a9565b5b9060005260206000200160009054906101000a900473ffffffffffffffffffffffffffffffffffffffff16600160006101000a81548173ffffffffffffffffffffffffffffffffffffffff021916908373ffffffffffffffffffffffffffffffffffffffff160217905550600160009054906101000a900473ffffffffffffffffffffffffffffffffffffffff1673ffffffffffffffffffffffffffffffffffffffff167f75060f9e79552df167b73353fee6237a75bb5ba8ea022f77224e32f152138bcb476040516106c29190610f80565b60405180910390a26001600360006101000a81548160ff02191690831515021790555050565b600360009054906101000a900460ff1681565b6060600280548060200260200160405190810160405280929190818152602001828054801561077f57602002820191906000526020600020905b8160009054906101000a900473ffffffffffffffffffffffffffffffffffffffff1673ffffffffffffffffffffffffffffffffffffffff1681526020019060010190808311610735575b5050505050905090565b6000600160009054906101000a900473ffffffffffffffffffffffffffffffffffffffff16905090565b670de0b6b3a764000034146107fd576040517f08c379a00000000000000000000000000000000000000000000000000000000081526004016107f490610f00565b60405180910390fd5b6002339080600181540180825580915050600190039060005260206000200160009091909190916101000a81548173ffffffffffffffffffffffffffffffffffffffff021916908373ffffffffffffffffffffffffffffffffffffffff1602179055503373ffffffffffffffffffffffffffffffffffffffff167f31e760aa525306aba638a784082a013b6a1cc0a9a1789f3f22281c0453b10b1f60405160405180910390a2565b600160009054906101000a900473ffffffffffffffffffffffffffffffffffffffff1681565b60008054906101000a900473ffffffffffffffffffffffffffffffffffffffff1673ffffffffffffffffffffffffffffffffffffffff163373ffffffffffffffffffffffffffffffffffffffff1614610959576040517f08c379a000000000000000000000000000000000000000000000000000000000815260040161095090610ee0565b60405180910390fd5b600360009054906101000a900460ff166109a8576040517f08c379a000000000000000000000000000000000000000000000000000000000815260040161099f90610ec0565b60405180910390fd5b6000479050600160009054906101000a900473ffffffffffffffffffffffffffffffffffffffff1673ffffffffffffffffffffffffffffffffffffffff166108fc829081150290604051600060405180830381858888f19350505050158015610a15573d6000803e3d6000fd5b50600160009054906101000a900473ffffffffffffffffffffffffffffffffffffffff1673ffffffffffffffffffffffffffffffffffffffff167fa07504ca2ddf7919939a550c942dadfa6e7cb9abf8c05d99142202f7c60ba69882604051610a7e9190610f80565b60405180910390a26000600360006101000a81548160ff021916908315150217905550600067ffffffffffffffff811115610abc57610abb6110d8565b5b604051908082528060200260200182016040528015610aea5781602001602082028036833780820191505090505b5060029080519060200190610b00929190610b7d565b5050565b60028181548110610b1457600080fd5b906000526020600020016000915054906101000a900473ffffffffffffffffffffffffffffffffffffffff1681565b60004244600280549050604051602001610b5f93929190610e10565b6040516020818303038152906040528051906020012060001c905090565b828054828255906000526020600020908101928215610bf6579160200282015b82811115610bf55782518260006101000a81548173ffffffffffffffffffffffffffffffffffffffff021916908373ffffffffffffffffffffffffffffffffffffffff16021790555091602001919060010190610b9d565b5b509050610c039190610c07565b5090565b5b80821115610c20576000816000905550600101610c08565b5090565b600081359050610c3381611274565b92915050565b600060208284031215610c4f57610c4e611107565b5b6000610c5d84828501610c24565b91505092915050565b6000610c728383610c7e565b60208301905092915050565b610c8781610ff7565b82525050565b610c9681610ff7565b82525050565b610ca581610fe5565b82525050565b6000610cb682610fab565b610cc08185610fc3565b9350610ccb83610f9b565b8060005b83811015610cfc578151610ce38882610c66565b9750610cee83610fb6565b925050600181019050610ccf565b5085935050505092915050565b610d1281611009565b82525050565b6000610d25601583610fd4565b9150610d308261110c565b602082019050919050565b6000610d48602883610fd4565b9150610d5382611135565b604082019050919050565b6000610d6b601d83610fd4565b9150610d7682611184565b602082019050919050565b6000610d8e601583610fd4565b9150610d99826111ad565b602082019050919050565b6000610db1604183610fd4565b9150610dbc826111d6565b606082019050919050565b6000610dd4601f83610fd4565b9150610ddf8261124b565b602082019050919050565b610df381611035565b82525050565b610e0a610e0582611035565b61103f565b82525050565b6000610e1c8286610df9565b602082019150610e2c8285610df9565b602082019150610e3c8284610df9565b602082019150819050949350505050565b6000602082019050610e626000830184610c9c565b92915050565b6000602082019050610e7d6000830184610c8d565b92915050565b60006020820190508181036000830152610e9d8184610cab565b905092915050565b6000602082019050610eba6000830184610d09565b92915050565b60006020820190508181036000830152610ed981610d18565b9050919050565b60006020820190508181036000830152610ef981610d3b565b9050919050565b60006020820190508181036000830152610f1981610d5e565b9050919050565b60006020820190508181036000830152610f3981610d81565b9050919050565b60006020820190508181036000830152610f5981610da4565b9050919050565b60006020820190508181036000830152610f7981610dc7565b9050919050565b6000602082019050610f956000830184610dea565b92915050565b6000819050602082019050919050565b600081519050919050565b6000602082019050919050565b600082825260208201905092915050565b600082825260208201905092915050565b6000610ff082611015565b9050919050565b600061100282611015565b9050919050565b60008115159050919050565b600073ffffffffffffffffffffffffffffffffffffffff82169050919050565b6000819050919050565b6000819050919050565b600061105482611035565b915061105f83611035565b92508261106f5761106e61107a565b5b828206905092915050565b7f4e487b7100000000000000000000000000000000000000000000000000000000600052601260045260246000fd5b7f4e487b7100000000000000000000000000000000000000000000000000000000600052603260045260246000fd5b7f4e487b7100000000000000000000000000000000000000000000000000000000600052604160045260246000fd5b600080fd5b7f4e6f2077696e6e6572207069636b6564207965742e0000000000000000000000600082015250565b7f4f6e6c7920746865206d616e616765722063616e2063616c6c2074686973206660008201527f756e6374696f6e2e000000000000000000000000000000000000000000000000602082015250565b7f50617274696369706174696f6e2066656520697320312065746865722e000000600082015250565b7f4e6f2066756e647320746f2077697468647261772e0000000000000000000000600082015250565b7f4e6f7420656e6f75676820706c617965727320746f206472617720612077696e60008201527f6e65722e204174206c65617374203320706c617965727320726571756972656460208201527f2e00000000000000000000000000000000000000000000000000000000000000604082015250565b7f57696e6e65722068617320616c7265616479206265656e207069636b65642e00600082015250565b61127d81611035565b811461128857600080fd5b5056fea2646970667358221220ee3c247e66c46a7ea9f9a891e805d3cadc469831a9fdf321bb4283439bde8e0e64736f6c63430008060033",
  "immutableReferences": {},
  "source": "// SPDX-License-Identifier: MIT\r\npragma solidity >=0.7.0 <0.9.0;\r\n\r\ncontract Lottery {\r\n\r\n    address public manager;\r\n    address payable public winner;\r\n    address payable[] public players;\r\n    bool public isWinnerPicked;\r\n\r\n    event PlayerJoined(address indexed player);\r\n    event WinnerSelected(address indexed winner, uint amount);\r\n    event FundsWithdrawn(address indexed manager, uint amount);\r\n    event PrizeTransferred(address indexed winner, uint amount);\r\n\r\n    constructor() {\r\n        manager = msg.sender;\r\n        isWinnerPicked = false;\r\n    }\r\n\r\n    modifier onlyManager() {\r\n        require(msg.sender == manager, \"Only the manager can call this function.\");\r\n        _;\r\n    }\r\n\r\n    modifier hasSufficientPlayers() {\r\n        require(players.length >= 3, \"Not enough players to draw a winner. At least 3 players required.\");\r\n        _;\r\n    }\r\n\r\n    function participate() public payable {\r\n        require(msg.value == 1 ether, \"Participation fee is 1 ether.\");\r\n        players.push(payable(msg.sender));\r\n        emit PlayerJoined(msg.sender);\r\n    }\r\n\r\n    function getBalance() public view onlyManager returns (uint) {\r\n        return address(this).balance;\r\n    }\r\n\r\n    function getPlayers() public view returns (address payable[] memory) {\r\n        return players;\r\n    }\r\n\r\n    function pickWinner() public onlyManager hasSufficientPlayers {\r\n        require(!isWinnerPicked, \"Winner has already been picked.\");\r\n        uint randomIndex = random() % players.length;\r\n        winner = players[randomIndex];\r\n        emit WinnerSelected(winner, address(this).balance);\r\n        isWinnerPicked = true;\r\n    }\r\n\r\n    function transferPrize() public onlyManager {\r\n        require(isWinnerPicked, \"No winner picked yet.\");\r\n        uint prizeAmount = address(this).balance;\r\n        winner.transfer(prizeAmount);\r\n        emit PrizeTransferred(winner, prizeAmount);\r\n        isWinnerPicked = false;\r\n        players = new address payable[](0);\r\n          }\r\n\r\n    function getWinner() public view returns (address payable) {\r\n        return winner;\r\n    }\r\n\r\n    function random() internal view returns (uint) {\r\n        return uint(keccak256(abi.encodePacked(block.timestamp, block.difficulty, players.length)));\r\n    }\r\n\r\n    function withdrawFunds() public onlyManager {\r\n        require(address(this).balance > 0, \"No funds to withdraw.\");\r\n        uint balance = address(this).balance;\r\n        payable(manager).transfer(balance);\r\n        emit FundsWithdrawn(manager, balance);\r\n    }\r\n}\r\n",
  "sourcePath": "C:\\Users\\hassa\\OneDrive\\Desktop\\lottery\\contracts\\Lottery.sol",
  "compiler": {
    "name": "solc",
    "version": "0.8.6+commit.11564f7e.Emscripten.clang"
  },
  "schemaVersion": "3.4.16",
  "updatedAt": "2025-01-12T14:44:13.236Z",
  "networkType": "ethereum",
  "devdoc": {
    "kind": "dev",
    "methods": {},
    "version": 1
  },
  "userdoc": {
    "kind": "user",
    "methods": {},
    "version": 1
  }
}